:020000040800F2
:1000000000000220B5990208059A0208059A020824
:10001000059A0208059A0208059A020800000000E5
:10002000000000000000000000000000059A020827
:10003000059A020800000000059A0208059A0208C5
:10004000059A0208059A0208059A0208059A02080C
:10005000059A0208059A0208059A0208059A0208FC
:10006000059A0208059A0208059A0208059A0208EC
:10007000059A0208059A0208059A0208059A0208DC
:10008000059A0208059A0208059A0208059A0208CC
:10009000059A0208059A0208059A0208059A0208BC
:1000A00049A70008059A0208059A0208059A02085D
:1000B00077BC0008059A02083DBB0008059A0208B3
:1000C000059A0208059A0208059A0208059A02088C
:1000D000059A0208B9BC0008059A0208059A0208A8
:1000E000059A0208059A0208059A0208059A02086C
:1000F000059A0208059A0208059A0208059A02085C
:10010000059A0208059A0208059A0208059A02084B
:10011000059A0208059A0208059A0208059A02083B
:10012000059A0208059A0208059A0208059A02082B
:10013000059A0208059A0208059A0208059A02081B
:10014000059A0208059A0208059A0208059A02080B
:10015000059A0208059A0208059A0208059A0208FB
:10016000059A0208059A0208059A0208059A0208EB
:10017000059A0208059A0208059A0208059A0208DB
:08018000059A0208059A020825
:1001880010B5054C237833B9044B13B10448AFF3C9
:1001980000800123237010BD98000020000000009B
:1001A800709C020808B5034B1BB103490348AFF321
:1001B800008008BD000000009C000020709C020820
:1001C80080B485B000AF78600023FB730023BB7355
:1001D8000F237B737B68DB78002B42D04FF46D4391
:1001E800CEF20003DB68DB431B0ADBB203F0070334
:1001F800FB73FB7BC3F10403BB737A7BFB7B42FA83
:1002080003F37B737B685B781A46BB7B02FA03F3C4
:10021800FB737B689A787B7B1340DAB2FB7B1343D2
:10022800FB73FB7B1B01FB734FF46143CEF20003AE
:100238007A6812781344FA7B83F800234FF46143F9
:10024800CEF200037A6812785209D2B210467A6860
:10025800127802F01F02012101FA02F243F820206D
:1002680012E04FF46143CEF200037A681278520923
:10027800D2B210467A68127802F01F02012191402A
:1002880000F1200243F8221000BF1437BD465DF884
:10029800047B704780B485B000AF78603960002374
:1002A800FB607B681B68FB60FA6848F23F03CFF28B
:1002B8001C031340FB603B681A683B68DB681A4301
:1002C8003B685B691A433B689B691A433B68DB6977
:1002D8001A433B681B6A1A433B685B6A1A433B68CC
:1002E8009B6A1A433B685B6B1A433B689B6B1343DF
:1002F800FA681343FB607B68FA681A607B685B697D
:10030800FB60FB6823F00703FB603B68DA6A3B6825
:100318001B6B1343FA681343FB607B68FA685A61E6
:100328003B681A697B685A603B685A687B689A60C0
:100338003B689A687B68DA6000BF1437BD465DF891
:10034800047B704780B487B000AF786039600023C1
:100358007B6100233B610023FB6000237B6176E027
:1003680001227B6902FA03F33B613B681A683B6927
:100378001340FB60FA683B699A4265D17B681A684A
:100388007B695B00032101FA03F3DB431A407B68B6
:100398001A607B681A683B681B7919467B695B00A1
:1003A80001FA03F31A437B681A603B681B79012B37
:1003B80003D03B681B79022B2ED17B689A687B6936
:1003C8005B00032101FA03F3DB431A407B689A6060
:1003D8007B689A683B685B7919467B695B0001FA20
:1003E80003F31A437B689A607B685A687B699BB2FF
:1003F800194601238B40DB431A407B685A607B68AF
:100408005B683A68927911467A6992B201FA02F207
:1004180092B21A437B685A607B68DA687B699BB240
:100428005B00032101FA03F3DB431A407B68DA60BF
:100438007B68DA683B68DB7919467B695B0001FAFF
:1004480003F31A437B68DA607B6901337B617B695C
:100458000F2B85D900BF1C37BD465DF8047B70475C
:1004680080B485B000AF78600B467B8013467B7004
:100478000023FB600023BB607A787B8803F00703C6
:100488009B0002FA03F3FB607B88DB089BB21846EB
:100498007B88DB089BB21A467B68083253F8222017
:1004A8007B8803F007039B000F2101FA03F3DB436A
:1004B80002EA03017B6800F1080243F822107B88F6
:1004C800DB089BB21A467B68083253F82220FB6887
:1004D8001343BB607B88DB089BB21A467B680832F3
:1004E800B96843F8221000BF1437BD465DF8047B95
:1004F800704780B489B000AF78600023BB610023E7
:100508007B610023FB6102233B610023FB60022324
:10051800BB604FF46053C4F202039B6803F00C0302
:10052800BB61BB69042B0AD0082B0FD0002B58D114
:100538007A684FF41053C0F2F403136058E07A68F5
:1005480047F64003C0F27D13136051E04FF4605347
:10055800C4F202035B689B0D03F00103FB604FF4D8
:100568006053C4F202035B6803F03F03BB60FB689F
:10057800002B12D047F64003C0F27D13BA68B3FBD4
:10058800F2F24FF46053C4F202035B689B09C3F3B1
:10059800080303FB02F3FB6111E04FF41053C0F2B0
:1005A800F403BA68B3FBF2F24FF46053C4F20203E7
:1005B8005B689B09C3F3080303FB02F3FB614FF479
:1005C8006053C4F202035B681B0C03F0030301339E
:1005D8005B003B61FA693B69B2FBF3F27B681A6026
:1005E80006E07A684FF41053C0F2F403136000BFBA
:1005F8004FF46053C4F202039B6803F0F003BB613D
:10060800BB691B09BB614AF2F803C0F60203BA6969
:1006180013441B787B617B681A687B69DA407B68C6
:100628005A604FF46053C4F202039B6803F4E0532A
:10063800BB61BB699B0ABB614AF2F803C0F60203BF
:10064800BA6913441B787B617B685A687B69DA4016
:100658007B689A604FF46053C4F202039B6803F40A
:100668006043BB61BB695B0BBB614AF2F803C0F630
:100678000203BA6913441B787B617B685A687B69FB
:10068800DA407B68DA6000BF2437BD465DF8047B3A
:10069800704780B483B000AF78600B46FB70FB787E
:1006A800002B0CD04FF46053C4F202034FF4605295
:1006B800C4F20202116B7A680A431A630CE04FF421
:1006C8006053C4F202034FF46052C4F20202116B89
:1006D8007A68D2430A401A6300BF0C37BD465DF8FA
:1006E800047B704780B483B000AF78600B46FB7022
:1006F800FB78002B0CD04FF46053C4F202034FF484
:100708006052C4F20202116C7A680A431A640CE05F
:100718004FF46053C4F202034FF46052C4F2020271
:10072800116C7A68D2430A401A6400BF0C37BD4680
:100738005DF8047B704780B483B000AF78600B46E7
:10074800FB70FB78002B0CD04FF46053C4F202030B
:100758004FF46052C4F20202516C7A680A435A6438
:100768000CE04FF46053C4F202034FF46052C4F239
:100778000202516C7A68D2430A405A6400BF0C37AF
:10078800BD465DF8047B704780B485B000AF7860E3
:1007980039600023FB817B681B88FB81FB8903F49C
:1007A8004153FB813B681A883B685B8813439AB2C4
:1007B8003B689B8813439AB23B68DB8813439AB221
:1007C8003B681B8913439AB23B685B8913439AB20F
:1007D8003B689B8913439AB23B68DB8913439AB2FF
:1007E800FB891343FB817B68FA891A807B689B8BA2
:1007F8009BB223F400639AB27B689A833B681A8A97
:100808007B681A8200BF1437BD465DF8047B7047C9
:1008180080B483B000AF78600B46FB70FB78002B88
:1008280008D07B681B889BB243F040039AB27B6870
:100838001A8007E07B681B889BB223F040039AB2BA
:100848007B681A8000BF0C37BD465DF8047B704793
:1008580080B483B000AF78600B46FB70FB78002B48
:1008680008D07B681B889BB243F400539AB27B681C
:100878001A8007E07B681B889BB223F400539AB266
:100888007B681A8000BF0C37BD465DF8047B704753
:1008980080B485B000AF786039600023FB817B6845
:1008A8001B88FB817A680023C4F201039A421FD097
:1008B8007A684FF48063C4F201039A4218D07B68C7
:1008C800B3F1804F14D07A684FF48063C4F2000308
:1008D8009A420DD07A684FF40063C4F200039A423A
:1008E80006D07A684FF44063C4F200039A4208D1F4
:1008F800FB8923F07003FB813B685A88FB8913430B
:10090800FB817A684FF48053C4F200039A420FD0F7
:100918007A684FF4A053C4F200039A4208D0FB89C6
:1009280023F44073FB813B681A89FB891343FB81DD
:100938007B68FA891A803B685A687B68DA623B6888
:100948001A887B681A857A680023C4F201039A42E0
:1009580006D07A684FF48063C4F201039A4204D146
:100968003B689B7A9AB27B681A867B6801229A82D6
:1009780000BF1437BD465DF8047B704780B483B070
:1009880000AF78600B46FB70FB78002B08D07B68C3
:100998001B889BB243F001039AB27B681A8007E078
:1009A8007B681B889BB223F001039AB27B681A808C
:1009B80000BF0C37BD465DF8047B704780B485B036
:1009C80000AF7860396000237B810023FB8100231E
:1009D800BB817B681B8C9BB223F001039AB27B68B6
:1009E8001A847B681B8CFB817B689B88BB817B6836
:1009F8001B8B7B817B8923F070037B817B8923F0B0
:100A080003037B813B681A887B8913437B81FB89BD
:100A180023F00203FB813B689A89FB891343FB811E
:100A28003B685A88FB891343FB817A680023C4F228
:100A380001039A4206D07A684FF48063C4F2010336
:100A48009A4223D1FB8923F00803FB813B68DA89AA
:100A5800FB891343FB81FB8923F00403FB813B687B
:100A68009A88FB891343FB81BB8923F48073BB817C
:100A7800BB8923F40073BB813B681A8ABB89134383
:100A8800BB813B685A8ABB891343BB817B68BA899F
:100A98009A807B687A891A833B689A687B685A636C
:100AA8007B68FA891A8400BF1437BD465DF8047B59
:100AB800704780B485B000AF7860396000237B81CF
:100AC8000023FB810023BB817B681B8C9BB223F036
:100AD80010039AB27B681A847B681B8CFB817B6845
:100AE8009B88BB817B681B8B7B817B8923F4E043DC
:100AF8007B817B8923F440737B813B681B881B02C5
:100B08009AB27B8913437B81FB8923F02003FB8105
:100B18003B689B891B019AB2FB891343FB813B68A5
:100B28005B881B019AB2FB891343FB817A68002317
:100B3800C4F201039A4206D07A684FF48063C4F283
:100B480001039A422BD1FB8923F08003FB813B6888
:100B5800DB891B019AB2FB891343FB81FB8923F0D4
:100B68004003FB813B689B881B019AB2FB891343B6
:100B7800FB81BB8923F48063BB81BB8923F40063B9
:100B8800BB813B681B8A9B009AB2BB891343BB811C
:100B98003B685B8A9B009AB2BB891343BB817B6825
:100BA800BA899A807B687A891A833B689A687B68D5
:100BB8009A637B68FA891A8400BF1437BD465DF8CA
:100BC800047B704780B485B000AF7860396000233B
:100BD8007B810023FB810023BB817B681B8C9BB23C
:100BE80023F480739AB27B681A847B681B8CFB8120
:100BF8007B689B88BB817B689B8B7B817B8923F08F
:100C080070037B817B8923F003037B813B681A880F
:100C18007B8913437B81FB8923F40073FB813B6849
:100C28009B891B029AB2FB891343FB813B685B8853
:100C38001B029AB2FB891343FB817A680023C4F232
:100C480001039A4206D07A684FF48063C4F2010324
:100C58009A422BD1FB8923F40063FB813B68DB8933
:100C68001B029AB2FB891343FB81FB8923F480633F
:100C7800FB813B689B881B029AB2FB891343FB816B
:100C8800BB8923F48053BB81BB8923F40053BB8108
:100C98003B681B8A1B019AB2BB891343BB813B6823
:100CA8005B8A1B019AB2BB891343BB817B68BA89F3
:100CB8009A807B687A899A833B689A687B68DA634A
:100CC8007B68FA891A8400BF1437BD465DF8047B37
:100CD800704780B485B000AF786039600023BB816D
:100CE80000237B810023FB817B681B8C9BB223F450
:100CF80080539AB27B681A847B681B8C7B817B68E3
:100D08009B88FB817B689B8BBB81BB8923F4E04379
:100D1800BB81BB8923F44073BB813B681B881B02E2
:100D28009AB2BB891343BB817B8923F400537B812F
:100D38003B689B891B039AB27B8913437B813B6881
:100D48005B881B039AB27B8913437B817A680023F3
:100D5800C4F201039A4206D07A684FF48063C4F261
:100D680001039A420AD1FB8923F48043FB813B6843
:100D78001B8A9B019AB2FB891343FB817B68FA8922
:100D88009A807B68BA899A833B689A687B681A64F8
:100D98007B687A891A8400BF1437BD465DF8047BE6
:100DA800704780B483B000AF78600B46FB70FB7867
:100DB800002B0CD07B68B3F844309BB26FEA4343F6
:100DC8006FEA53439AB27B68A3F8442009E07B6832
:100DD800B3F844309BB2C3F30E039AB27B68A3F80E
:100DE800442000BF0C37BD465DF8047B704780B4D3
:100DF80085B000AF78600B467B800023FB817B6861
:100E08001B89FB81FB8923F07003FB81FA897B88AE
:100E18001343FB817B68FA891A8100BF1437BD46EA
:100E28005DF8047B704780B483B000AF78600B46F0
:100E38007B807B689B889BB223F070039AB27B68A7
:100E48009A807B689B889AB27B8813439AB27B68A6
:100E58009A8000BF0C37BD465DF8047B704780B4AC
:100E680083B000AF78600B467B807B681B899BB2A0
:100E780023F007039AB27B681A817B681B899AB2B0
:100E88007B8813439AB27B681A8100BF0C37BD4632
:100E98005DF8047B704780B483B000AF78600B4680
:100EA8007B807B681B899BB223F080039AB27B68A6
:100EB8001A817B681B899AB27B8813439AB27B6834
:100EC8001A8100BF0C37BD465DF8047B704780B5BA
:100ED8008AB000AF7860396000237B6200233B62F0
:100EE8000023FB610023BB617B681B8A9BB27B628A
:100EF8007B6A23F440537B623B68DB881A467B6A33
:100F080013437B627B6A9AB27B681A827B689B89EF
:100F18009BB27B627B6A23F4B05323F00C037B62A1
:100F28003B689A883B681B8913439AB23B685B8984
:100F380013439BB21A467B6A13437B627B6A9AB25D
:100F48007B689A817B689B8A9BB27B627B6A23F46D
:100F580040737B623B689B891A467B6A13437B62BA
:100F68007B6A9AB27B689A8207F108031846FFF7F2
:100F7800C0FA7A684FF48053C4F201039A4206D04B
:100F88007A684FF4A053C4F201039A4202D17B69F4
:100F98003B6201E03B693B627B689B899BB21BB269
:100FA800002B0CDA3A6A13469B0013449A001A4441
:100FB8003B681B685B00B2FBF3F3FB610BE03A6A2A
:100FC80013469B0013449A001A443B681B689B0015
:100FD800B2FBF3F3FB61FA6948F21F53C5F2EB1356
:100FE800A3FB02235B091B017B627B6A1B0964224A
:100FF80002FB03F3FA69D31ABB617B689B899BB236
:101008001BB2002B10DABB69DB0003F1320248F295
:101018001F53C5F2EB13A3FB02235B0903F007037D
:101028007A6A13437B620FE0BB691B0103F132024A
:1010380048F21F53C5F2EB13A3FB02235B0903F02D
:101048000F037A6A13437B627B6A9AB27B681A81C0
:1010580000BF2837BD4680BDF0B54CF6FF13C3F678
:101068009A33984285B040F398804CF66B23C6F6C5
:101078005F3383FB0023C017C0EBA350472546F21C
:101088006767C6F2666700234FF02E0E87FB0024C1
:10109800C217C2EBA40202EB8204A0EB440004AC2A
:1010A800E618012B40F0300406F80C4C104603F10A
:1010B80001026BD0002809DD1346E7E7002806F88F
:1010C8000CCC02F1020200F38A80002516F80C2CE1
:1010D8000A70581E002B71D004AA10449A1E10F8EA
:1010E8000C0C4870501C43D004A81044541E10F82F
:1010F8000C0C8870002A3BD004A80444901E14F8F5
:101108000C4CCC70471C33D004AC0444D01E14F8EB
:101118000C4C0C71461C2BD004AC0444101F14F862
:101128000C4C4C71441C23D004AC0444501F14F8DC
:101138000C4C8C71471C1BD004AC0444901F14F851
:101148000C4CCC71461C13D004AC0444D01F14F8CA
:101158000C4C0C72441C0BD004AC2044083A10F818
:101168000C0C4872501C03D0224412F80C2C8A72C2
:10117800581C35B1CA18202662240E549570181DC3
:10118800D47000230B54C0B205B0F0BD00288DF810
:1011980006E015DD0322134678E744F23F23C0F248
:1011A8000F03984214DD48F6AD33C6F6DB0383FB24
:1011B8000023C017C0EB23304D2560E70023D7E795
:1011C8009DF805304B7081F800E0022300228BE780
:1011D80046F2676EC6F2666E00224FF0200C8EFB58
:1011E8000043C517C5EBA30505EB8504A0EB440038
:1011F80004AC531CA718E61840F03004284612F037
:10120800020507F80C4C1C467FF458AF002801DD96
:101218002246E4E713463E4658E700BF80B584B04F
:1012280000AF0023FB7343F27421C2F201010020D6
:1012380001F0D8FF0346002B02D00223FB7387E09E
:1012480043F27423C2F20103BB6043F27423C2F277
:1012580001037B60BB681B78E92B3ED0BB681B7819
:10126800EB2B3AD043F27423C2F201037B607B6814
:10127800B3F8FE319BB24AF65522934201D00123BE
:101288006CE07B6803F5DF733B603B689A684FF45A
:101298000863C0F210039A4201D001235EE03B6864
:1012A8009B6843F27421C2F20101184601F09AFFCB
:1012B8000346002B02D00323FB7349E043F2742357
:1012C800C2F20103BB60BB681B78E92B07D0BB687F
:1012D8001B78EB2B03D0012340E001233EE000BF45
:1012E800BB68B3F80B309BB2B3F5007F01D0012384
:1012F80034E0BB685B7B082B01D001232EE0BB6880
:10130800DB6A022B01D0012328E0BB68DB69BA68DD
:10131800D28992B21A44BB681B7C1946BB685B6AC7
:1013280003FB01F31344A3F1100240F69443C2F205
:1013380000031A60BB68DB899BB21A464FF4086346
:10134800C0F210031A4440F22813C2F200031A60D4
:10135800FB7B002B01D0FB7B00E0002318461037F5
:10136800BD4680BD90B599B000AF78607B68DA0063
:1013780040F69443C2F200031B681344FB65012343
:1013880087F857300023A7F854300023A7F85230C5
:10139800002387F8513043F27843C2F201037B629D
:1013A8007B6A03F57F533E333B620023FB777B6AFE
:1013B800FB643B6A0D3BBB64BB6C00221A700022C5
:1013C8005A7000F084BD43F27421C2F20101F86D35
:1013D80001F008FF0346002B03D000BF002300F0F4
:1013E80095BD43F27423C2F20103BB65002387F85D
:1013F800473000F022BDBB6D1B78002B04D10023C1
:1014080087F8573000F01EBDBB6D1B78E52B07D160
:10141800BB6D2033BB65002387F8513000F008BD51
:10142800BB6DDB7A0F2B40F0FF82BB6D1B7803F09E
:101438003F03FB74FB7C032B40F0FD8097F8513091
:10144800013387F85130FB6C03F12602BB6D997F9D
:10145800BB6DDB7F9B08DBB2184680001844400058
:1014680003441B01DBB20B44DBB21370FB6C03F1CA
:101478002502BB6D197FBB6D5B7F9B08DBB21846ED
:1014880080001844400003441B01DBB20B44DBB26C
:101498001370FB6C03F12402BB6D197EBB6D5B7E80
:1014A8009B08DBB2184680001844400003441B0127
:1014B800DBB20B44DBB21370FB6C03F12302BB6D90
:1014C800997DBB6DDB7D9B08DBB218468000184414
:1014D800400003441B01DBB20B44DBB21370FB6C0E
:1014E80003F12202BB6D197DBB6D5B7D9B08DBB2EE
:1014F800184680001844400003441B01DBB20B442B
:10150800DBB21370FB6C03F12102BB6D997CBB6DE0
:10151800DB7C9B08DBB2184680001844400003447B
:101528001B01DBB20B44DBB21370FB6C03F120022E
:10153800BB6D197CBB6D5B7C9B08DBB218468000D9
:101548001844400003441B01DBB20B44DBB21370A8
:10155800FB6C03F11F02BB6D997BBB6DDB7B9B08AA
:10156800DBB2184680001844400003441B01DBB27C
:101578000B44DBB21370FB6C03F11E02BB6D597A8E
:10158800BB6D9B7A9B08DBB218468000184440006C
:1015980003441B01DBB20B44DBB21370FB6C03F199
:1015A8001D02BB6DD979BB6D1B7A9B08DBB218464F
:1015B80080001844400003441B01DBB20B44DBB23B
:1015C8001370FB6C03F11C02BB6D5979BB6D9B79E1
:1015D8009B08DBB2184680001844400003441B01F6
:1015E800DBB20B44DBB21370FB6C03F11B02BB6D67
:1015F800D978BB6D1B799B08DBB21846800018446C
:10160800400003441B01DBB20B44DBB21370FB6CDC
:1016180003F11A02BB6D5978BB6D9B789B08DBB24E
:10162800184680001844400003441B01DBB20B44F9
:10163800DBB21370F9E3FB7C022B40F0FD8097F8D6
:101648005130013387F85130FB6C03F11902BB6D3F
:10165800997FBB6DDB7F9B08DBB21846800018447E
:10166800400003441B01DBB20B44DBB21370FB6C7C
:1016780003F11802BB6D197FBB6D5B7F9B08DBB262
:10168800184680001844400003441B01DBB20B4499
:10169800DBB21370FB6C03F11702BB6D197EBB6DD7
:1016A8005B7E9B08DBB21846800018444000034468
:1016B8001B01DBB20B44DBB21370FB6C03F11602A7
:1016C800BB6D997DBB6DDB7D9B08DBB21846800046
:1016D8001844400003441B01DBB20B44DBB2137017
:1016E800FB6C03F11502BB6D197DBB6D5B7D9B081F
:1016F800DBB2184680001844400003441B01DBB2EB
:101708000B44DBB21370FB6C03F11402BB6D997CC4
:10171800BB6DDB7C9B08DBB2184680001844400098
:1017280003441B01DBB20B44DBB21370FB6C03F107
:101738001302BB6D197CBB6D5B7C9B08DBB2184642
:1017480080001844400003441B01DBB20B44DBB2A9
:101758001370FB6C03F11202BB6D997BBB6DDB7BD5
:101768009B08DBB2184680001844400003441B0164
:10177800DBB20B44DBB21370FB6C03F11102BB6DDF
:10178800597ABB6D9B7A9B08DBB2184680001844D7
:10179800400003441B01DBB20B44DBB21370FB6C4B
:1017A80003F11002BB6DD979BB6D1B7A9B08DBB2C4
:1017B800184680001844400003441B01DBB20B4468
:1017C800DBB21370FB6C03F10F02BB6D5979BB6D73
:1017D8009B799B08DBB218468000184440000344FC
:1017E8001B01DBB20B44DBB21370FB6C03F10E027E
:1017F800BB6DD978BB6D1B799B08DBB2184680009E
:101808001844400003441B01DBB20B44DBB21370E5
:10181800FB6C03F10D02BB6D5978BB6D9B789B087F
:10182800DBB2184680001844400003441B01DBB2B9
:101838000B44DBB21370F8E2FB7C012B40F0F5821D
:1018480097F85130013387F85130FB6C03F10C02E3
:10185800BB6D997FBB6DDB7F9B08DBB218468000B0
:101868001844400003441B01DBB20B44DBB2137085
:10187800FB6C03F10B02BB6D197FBB6D5B7F9B0893
:10188800DBB2184680001844400003441B01DBB259
:101898000B44DBB21370FB6C03F10A02BB6D197EBB
:1018A800BB6D5B7E9B08DBB2184680001844400085
:1018B80003441B01DBB20B44DBB21370FB6C03F176
:1018C8000902BB6D997DBB6DDB7D9B08DBB21846B9
:1018D80080001844400003441B01DBB20B44DBB218
:1018E8001370FB6C03F10802BB6D197DBB6D5B7D4A
:1018F8009B08DBB2184680001844400003441B01D3
:10190800DBB20B44DBB21370FB6CDA1DBB6D997C48
:10191800BB6DDB7C9B08DBB2184680001844400096
:1019280003441B01DBB20B44DBB21370FB6C9A1D42
:10193800BB6D197CBB6D5B7C9B08DBB218468000D5
:101948001844400003441B01DBB20B44DBB21370A4
:10195800FB6C5A1DBB6D997BBB6DDB7B9B08DBB2B7
:10196800184680001844400003441B01DBB20B44B6
:10197800DBB21370FB6C1A1DBB6D597ABB6D9B7A79
:101988009B08DBB2184680001844400003441B0142
:10199800DBB20B44DBB21370FB6CDA1CBB6DD9797C
:1019A800BB6D1B7A9B08DBB21846800018444000C8
:1019B80003441B01DBB20B44DBB21370FB6C9A1CB3
:1019C800BB6D5979BB6D9B799B08DBB218468000CB
:1019D8001844400003441B01DBB20B44DBB2137014
:1019E800FB6C5A1CBB6DD978BB6D1B799B08DBB2AD
:1019F800184680001844400003441B01DBB20B4426
:101A0800DBB21370BB6D5A78BB6D9B789B08DBB259
:101A180019468900194449000B441B01DBB21344E1
:101A2800DAB2FB6C1A7000E2BB6DBB6197F85130FB
:101A3800002B56D097F85130013B87F8463097F87D
:101A48004630002B2FD097F846301A4652001A44D9
:101A580092001344DBB2053B87F8463023E097F841
:101A68004630FA6C13441B782E2B06D097F8463074
:101A7800FA6C13441B78002B10D197F84630FA6C97
:101A8800134400221A7097F846309AB2B7F85230C9
:101A980013449BB20133A7F8523008E097F8463058
:101AA800013387F8463097F84630262BD7D997F870
:101AB8004630272B65D1FB6C263300221A70FB6C4D
:101AC80025332E221A70FB6C24332E221A70FB6CDD
:101AD80023332E221A70B7F852302733A7F8523022
:101AE8004FE0BB69DB7A03F00803002B03D0BB6D22
:101AF8002033BB659CE1BB69DB7A03F01003002B44
:101B08000FD0BB691B782E2B0BD1BB695B78202BC0
:101B180007D1B7F85430002B03D1BB6D2033BB6518
:101B280086E1FB6C083300221A70FB6C0733BA6934
:101B3800D2791A70FB6C0633BA6992791A70FB6C09
:101B48000533BA6952791A70FB6C0433BA69127991
:101B58001A70FB6C0333BA69D2781A70FB6C0233C3
:101B6800BA6992781A70FB6C0133BA6952781A70A4
:101B7800BB691A78FB6C1A70B7F852300933A7F8AA
:101B88005230BB6C1A785B781B021343FB823B6AAA
:101B98000D3B3B64FB8A7A6A1344FB6300237B8713
:101BA80000233B87ACE0BB69DB7A03F01003002B12
:101BB80046D03B6C1B889BB21BB2002B3ADA3B6CBD
:101BC8001B889BB2C3F30D037A6A13447B63082313
:101BD80087F83330FB6B1A787B6B1B789A420BD2F1
:101BE800B7F854203B8FD31A7B87B7F854303B871C
:101BF8003B6C0D333B647DE0FB6B1A787B6B1B7889
:101C08009A4272D1FB6B0133FB637B6B01337B63BD
:101C1800FB6B1B78002B6DD0FB6B1B78002B69D0FE
:101C280097F83330013B87F8333097F83330002B7F
:101C3800D0D15FE0B7F854203B8FD31A7B8765E09B
:101C48003B6C1B889BB21BB2002B03DA3B6C0D3B31
:101C58003B6452E03B6C1B889BB2C3F30D037A6A6A
:101C68001344FB62082387F82B30FB8A7A6A1344F3
:101C7800FB63FB6B1A78FB6A1B789A420BD2B7F8A6
:101C880054203B8FD31A7B87B7F854303B873B6C83
:101C98000D333B642EE0FB6B1A78FB6A1B789A4283
:101CA80025D1FB6B0133FB63FB6A0133FB62FB6BE2
:101CB8001B78002B0FD1FB6A1B78002B19D0B7F8C3
:101CC80054203B8FD31A7B87B7F854303B873B6C43
:101CD8000D333B640EE097F82B30013B87F82B302F
:101CE80097F82B30002BC4D104E000BF02E000BFFE
:101CF80000E000BF3B6C0D3B3B643B8F01333B87EF
:101D08003A8FB7F854309A42FFF44DAF7B8F002BCF
:101D180025D000233B851CE03A8D13465B00134415
:101D28009B001344BA6CD1183B8D5A1C13465B00B8
:101D380013449B001344BA6C1A440B461468506849
:101D480091681C6058609960127B1A733B8D01334F
:101D58003B853A8D7B8F9A42DED33B6CBB64BB6C70
:101D6800FA8A1A80BB69DB7A03F01003002B09D0CA
:101D7800BB6C1B889BB26FEA43436FEA53439AB22A
:101D8800BB6C1A80BB691A7ABB6C9A70BB695A7AA9
:101D9800BB6CDA70BB699A7ABB6C1A71BB699B8A97
:101DA8009BB21B02BA69528B92B213441A46BB6C9F
:101DB800C3F80520BB69DA69BB6CC3F809200023A6
:101DC80087F85130B7F854300133A7F85430B7F8D2
:101DD80052307A6A1344FB64B7F854305A1C1346DD
:101DE8005B0013449B0013445B423A6A1344BB6490
:101DF800BB6CB7F852201A80B7F854301A46120351
:101E0800D21AD2001A44520013449AB2B7F8523088
:101E1800D31A9BB203F57F533E33BB82BB8A312B67
:101E280003D8002387F857300CE0BB6D2033BB651F
:101E380097F84730013387F8473097F847300F2B2A
:101E48007FF6D9AA97F85730002B46D0FB6D01339F
:101E5800FB6540F69443C2F200031B68FA6DD31A7F
:101E680003F00703002B32D17B68DB09FB6040F2EB
:101E78002813C2F200031A68FB68134443F2742162
:101E8800C2F20101184601F0ADF90346002B02D059
:101E980000BF00233AE0FB68DB017A68D31A7B6055
:101EA8007B689A0043F27423C2F2010313441B684F
:101EB8007B607B686FF07042934210D07B68DA00D9
:101EC80040F69443C2F200031B681344FB6597F87D
:101ED8005730002B7FF477AA02E000BF00E000BF74
:101EE800B7F85430DAB240F6C053C2F2000383F8B0
:101EF8008520B7F854301B0A9BB2DAB240F6C053BB
:101F0800C2F2000383F88620B7F8543018466437C5
:101F1800BD4690BD80B584B000AF78600023FB73E8
:101F280040F22113C2F200031B78002B00F09782C5
:101F380040F22113C2F2000300221A7040F2B403E7
:101F4800C2F200031B685A1C40F2B403C2F2000339
:101F58001A604FF2A473C2F201031B78772B01D1E8
:101F680000BF2BE10023C4F202035B6903F4807312
:101F7800002B12D00023C4F202034FF480725A835C
:101F88004FF47053C4F20003FF229A814FF2A473F6
:101F9800C2F2010377221A7010E140F21213C2F262
:101FA80000031B8801339AB240F21213C2F20003F5
:101FB8001A8040F21213C2F200031B8841F6631222
:101FC800934206D80023C4F202034FF480721A83A6
:101FD80045E240F21213C2F2000300221A804FF2C7
:101FE800A473C2F201031B78DB43DAB24FF2A47385
:101FF800C2F201031A704FF2A473C2F201031B78F4
:10200800002B00F0CF804FF2A473C2F201031B78BB
:10201800012B07D17423FB7340F21B13C2F2000398
:1020280001221A704FF2A473C2F201031B78022B2B
:1020380007D16B23FB7340F21B13C2F2000301228A
:102048001A704FF2A473C2F201031B78042B07D154
:102058007223FB7340F21B13C2F2000301221A70B1
:102068004FF2A473C2F201031B78082B07D1752322
:10207800FB7340F21B13C2F2000301221A704FF2E5
:10208800A473C2F201031B78802B29D141F2040307
:10209800CEF200031A6840F2C873C2F200031B684C
:1020A800D21A4FF43453C0F231139A4218D9762316
:1020B800FB730023C4F202034FF480721A834FF2B9
:1020C800A473C2F20103FF221A7041F20403CEF294
:1020D80000031A6840F2C873C2F200031A60C2E132
:1020E8004FF2A473C2F201031B78402B29D141F2AD
:1020F8000403CEF200031A6840F2C873C2F2000368
:102108001B68D21A4FF43453C0F231139A4218D9CB
:102118005A23FB730023C4F202034FF480721A831C
:102128004FF2A473C2F20103FF221A7041F20403B2
:10213800CEF200031A6840F2C873C2F200031A60B4
:1021480091E14FF2A473C2F201031B78202B29D12D
:1021580041F20403CEF200031A6840F2C873C2F2D7
:1021680000031B68D21A4FF43453C0F231139A4259
:1021780018D95A23FB730023C4F202034FF4807268
:102188001A834FF2A473C2F20103FF221A7041F2BC
:102198000403CEF200031A6840F2C873C2F20003C7
:1021A8001A6060E14FF2A473C2F20103FF221A70B1
:1021B8000023C4F202034FF480721A8340F2B4037E
:1021C800C2F200031B6840F6BB02934240F244810E
:1021D80040F2B403C2F2000300221A607B68DB7984
:1021E80003F00803002B00F028817B68B3F8013066
:1021F8009BB201339AB27B68A3F801207B68B3F8DD
:1022080001309BB2282B1DD140F21013C2F20003FB
:102218001B78002B0CD07B68B3F8033098B27B682E
:10222800B3F805309BB20122194604F0F5FB09E02A
:102238007B68B3F803309BB2DBB201221721184642
:1022480004F020FB7B68B3F801309BB2502B40F0C0
:10225800F48040F21013C2F200031B78002B0CD05C
:102268007B68B3F8033098B27B68B3F805309BB24B
:102278000022194604F0D0FB09E07B68B3F803306C
:102288009BB2DBB200221721184604F0FBFA7B68E8
:1022980000225A7000229A70CFE040F27B03C2F20B
:1022A80000031B78C3F12003BB73BA7B4FF284731E
:1022B800C2F201039B5C592B5BD0592B04DC112B18
:1022C80015D0122B30D079E0E02B02D0F02B07D0BC
:1022D80074E040F21B13C2F2000301221A7090E06E
:1022E80040F21C13C2F2000301221A7089E040F286
:1022F8001C13C2F200031B78002B0DD07B68DB791E
:1023080023F00403DAB27B68DA7140F21C13C2F2DC
:10231800000300221A7074E07B68DB7943F0040341
:10232800DAB27B68DA716CE040F21C13C2F2000387
:102338001B78002B0DD07B68DB7923F00103DAB220
:102348007B68DA7140F21C13C2F2000300221A7093
:1023580057E07B68DB7903F00403002B01D01223DC
:10236800FB737B68DB7943F00103DAB27B68DA71CF
:1023780047E040F21C13C2F200031B78002B0DD07B
:102388007B68DB7923F00103DAB27B68DA7140F20B
:102398001C13C2F2000300221A7032E07B68DB795A
:1023A80003F00403002B01D01223FB737B68DB7955
:1023B80043F00103DAB27B68DA7122E040F21C13C1
:1023C800C2F200031B78002B13D040F21C13C2F298
:1023D800000300221A7040F21B13C2F200031B789C
:1023E800002B0DD040F21B13C2F2000300221A701A
:1023F80006E0BA7B4FF28473C2F201039B5CFB7365
:1024080000BF40F27B03C2F200031B78013BDAB243
:1024180040F27B03C2F200031A7040F27B03C2F25F
:1024280000031B78002B05D140F27B03C2F20003A6
:1024380020221A70FB7B002B10D140F27B03C2F2E2
:1024480000031B781A4646F28843C4F202035B680D
:102458009A427FF422AF02E000BF00E000BFFB7B9E
:10246800002B3FF45DADFB7B18461037BD4680BDA1
:102478002DE9F84343F27426C2F2010640F2281906
:1024880088463746C50900F07F04C2F20009D9F82A
:1024980000003946284400F0A5FE06EB84031A46DE
:1024A8000433116829B10134802CF8D10135002496
:1024B800EDE7B8F1010F03D004EBC510BDE8F883D0
:1024C800D9F800006FF0704343F274212844C2F237
:1024D8000101136000F0FCFE04EBC510BDE8F883B1
:1024E80003682DE9F04740F694460133C2F200062E
:1024F800036002683568521B530729D10268ED430F
:102508001544EF08044601213846FFF7B1FF40F2B1
:102518002819C2F20009824643F27428D9F800004B
:10252800C2F20108AD0A41462844BF0000F05AFE35
:1025380007F4FE77D9F8000047F808A02844414678
:1025480000F0C6FE57F80820336803EBC203236087
:10255800BDE8F0870378012B0AD0BF2B02D80023EF
:102568004370704703F55473042203704270704738
:10257800FF2303704370704770B543F27424C2F2AE
:102588000104054626463146286800F02BFE2078CF
:10259800B0B394F82030A3B394F840309BB394F8C8
:1025A800603093B394F880308BB394F8A03083B341
:1025B80094F8C0307BB394F8E03073B394F80031EA
:1025C8006BB394F8203163B394F840315BB394F85B
:1025D800603153B394F880314BB394F8A03143B3CE
:1025E80094F8C0313BB394F8E03133B32846FFF791
:1025F80077FF3146286800F0F5FD20780028C8D11B
:1026080070BD012070BD022070BD032070BD042084
:1026180070BD052070BD062070BD072070BD082064
:1026280070BD092070BD0A2070BD0B2070BD0C2044
:1026380070BD0D2070BD0E2070BD0F2070BD00BF95
:10264800A0F16103192B01D9DF2802D92038C0B2C3
:10265800704770472DE9F04F40F6C054C2F20004AD
:1026680087B007460121022026682579FFF700FF79
:102678000190002F40F0AD8154215222442384F868
:102688003A1084F83B2084F83C3040F69443C2F278
:10269800000306AA1B680199A4F84C1003EBC603B3
:1026A80042F8043D029210466FF035026FF0750350
:1026B80084F8402084F8482049224FF0000984F823
:1026C800413084F8493084F84220522384F8442069
:1026D80084F84A200A0C84F83D9084F83E9084F8E7
:1026E8003F9084F84E9084F84F9084F8509084F886
:1026F800519084F8433084F8453084F84B30A4F87E
:102708004620FFF739FF082D064663D8002D40F014
:102718006D81202384F832302023022D84F8333051
:1027280040F27481E079FFF78BFF032D84F83400C1
:1027380040F26F81207AFFF783FF042D84F835007B
:1027480040F26A81607AFFF77BFF052D84F8360036
:1027580040F26581A07AFFF773FF062D84F83700F1
:1027680040F26081E07AFFF76BFF082D84F83800AB
:1027780040F05B81207BFFF763FF84F8390040F667
:10278800F253C2F2000343F274217501C2F201014F
:102798006A181C686C505F68DC689D685760D46074
:1027A80005981C695F69956014619D69DC69D4614D
:1027B8005761956100F08CFD059B019840F2C87245
:1027C80023F07043C2F2000243EA0676166007B0AF
:1027D800BDE8F08F40F6C558C2F200084A462946BF
:1027E80008E0FFF72DFFA3180132D2B2052A83F8BB
:1027F80032000CD818F8013B0139202B1846C9B211
:10280800EFD1C2F105039942EBDD052AF2D994F81C
:10281800322094F83310D30143EA52035A18C2F312
:10282800460394F8341043EAC2135A18C2F3460315
:1028380094F8351043EAC2135A18C2F3460394F8C1
:10284800361043EAC2135A18C2F3460394F83710F5
:1028580043EAC2135A18C2F3460343EAC21303F108
:102868007E02C2F3460343EAC21303F1310294F82D
:102878003A10C2F3460343EAC2135A18C2F3460396
:1028880094F83B1043EAC2130B44C3F3460294F88E
:102898003C1042EAC3130B44053584F867307E21A7
:1028A80031222E2384F8381084F8392060196355B2
:1028B800002F40F0BE80742343707222642382701C
:1028C800C37003304EF64F43EDB2C4F6C463A3FBA6
:1028D80005239B0801335F1E07EB470202EBC20288
:1028E80002EBC2021544EAB200210C2A417009D851
:1028F800C2F10C02D2B2013202300121039327F057
:10290800ABF9039B4FF0000943F274280F2240F6FD
:102918001A65C2F2010884F8652084F8669084F884
:10292800749084F875904021C2F2000507EB4702C5
:1029380007EB8202194340F6206B531D84F85A10A6
:10294800C2F2000B04EB030A00210FE0BEF10A0FEC
:1029580073D89AF800E000F802EDFFF7FBFD0131AB
:102968000D290AF1010A0BF1020B11D0042958466E
:102978005FFA81FEEAD89AF800E000F805EDFFF763
:10298800E9FD01310D290AF1010A0BF1020BEDD124
:10299800710108EB01032A6848F801200136EA684A
:1029A8006868A968DA60F6B22A6958609960686947
:1029B800A9691A61102EEA6958619961DA6144D0EF
:1029C80017F0FF0384F85A904FF000014FD05F1EB4
:1029D800ACE7012F7FF459AE4D214122472384F8FB
:1029E8003A1084F83B2084F83C304EE66079FFF7D3
:1029F80027FE012D84F832003FF48EAEA079FFF750
:102A08001FFE022D84F833003FF68CAE202384F895
:102A18003430202384F83530202384F836302023BE
:102A280084F83730202384F83830202384F839306C
:102A3800A5E6012F34D0013044E79AF800008BF85E
:102A480000005846FFF786FD89E743F27421C2F279
:102A58000101059800F03CFC0298FFF78DFD17F086
:102A6800FF03064684F85A904FF00001AFD140F6B4
:102A7800F253C2F20003710108EB01021C6848F826
:102A88000140DC685F689D68D46043F274211C696A
:102A98005760059895605F691461C2F2010184E688
:102AA8006D234370612267238270C370033009E786
:102AB800704700BF2DE9F04F43F2742440F2B80686
:102AC800C2F20104C2F200064FF40072002183B082
:102AD800204627F0C1F8326840F2FF3342F26771AE
:102AE800C0F2FB0355256FF05500C0F641319A42FC
:102AF80084F8FE5184F8FF01C4F8BF1100F2E880A1
:102B080044F20513A2F10A00C0F21043A3FB0051DE
:102B1800451A01EB55014909C1EB8111401A0130F1
:102B2800C0B2A2F109052D1AA3FB0513E91A03EB9C
:102B3800510348F281075909C8F28007A7FB0173BE
:102B4800DB09C3EB0323CB1AC3EB831745F25B61A5
:102B5800ED1BC0F21551A1FB05716D1A01EB55056E
:102B68006D0B4FEAA50E0EF0C00EDBB24EEA000E5A
:102B7800EDB24FF0000CA2F5801243F27421A2F6D8
:102B88008A02C2F2010160466FF07F0908274FF000
:102B9800100884F8C551C4F8CA2184F8C33184F8F0
:102BA800C4E184F8C9C184F8C69184F8C77184F86F
:102BB800C88100F08DFB0546002840F08E8043F266
:102BC800742029464FF40072C2F2010027F044F83D
:102BD8000120C0F20600206390203368A0705320C3
:102BE800E572E573E57784F82D5084F82E5084F863
:102BF8002F5084F840502071EB25E0713520A3F563
:102C0800801B257020724D253020ABF68A0BE570AD
:102C1800A0724F2520204FF03F0E4FEA9B26C0F2AE
:102C2800FF0EA571A0732E25F82045F65A0184F8E9
:102C38001E80C4F22071C4F818E065724FF0440E8B
:102C4800022560754FEA460A292040F6944344F667
:102C5800415884F81C90C5F2453884F805E084F89A
:102C680042000AF58012C2F20003C4F820B067736C
:102C7800677766622573257484F82C5044F2461CE5
:102C8800C4F8471042F2320E43F274214FF4086040
:102C980002F50962C3F2543CC2F2200EC4F84B801C
:102CA8006FF055094FF05508C2F20101C0F210004B
:102CB8001A60C4F852C0C4F856E084F8FE8184F85B
:102CC800FF9100F005FB60B1284603B0BDE8F08F26
:102CD8004FF0FF0E7546FE234BE7012003B0BDE819
:102CE800F08F43F2742140F68600C2F20101C0F26F
:102CF800100000F0EDFA034608B10320E5E743F2BF
:102D0800742019464FF40072C2F20100019326F0B4
:102D1800A3FFABEB4602203A1209023A43F27421B0
:102D280040F68100019BC4F8E8214FF0520C4FF0A7
:102D3800610E41224FF0720B84F8F051C2F201018A
:102D48000425C0F2100084F8ED3184F8EE3184F8DF
:102D5800EF3184F8FC3184F8FD3184F8FE8184F881
:102D6800FF9184F800C084F801C084F802E084F878
:102D7800E7E1E27084F8E62184F8E4B184F8E5B18B
:102D880084F8EC5100F0A4FA00289DD143F2742194
:102D980040F68700C2F20101C0F2100000F098FA74
:102DA800014608B1052090E743F27420C2F2010001
:102DB8004FF4007226F050FF43F2742140F682006F
:102DC800AA23C2F20101C0F2100084F8FE8184F83F
:102DD800FF3100F07DFA08B1062076E743F274214E
:102DE80040F68800C2F20101C0F2100000F070FA4B
:102DF80008B1072069E74FF40A61C0F210010AF12F
:102E0800200000F0CFF8014608B138465DE743F2EC
:102E180074204FF40072C2F2010026F01DFF4FF635
:102E2800F87343F274214FF40A60C0F6FF734FF051
:102E3800FF356FF07042C2F20101C0F2100023604A
:102E48006560A26000F044FA08B109203DE706F584
:102E5800801643F2742106F50A60C2F2010100F0FF
:102E680037FA08B10A2030E743F274204FF40072B1
:102E78000021C2F2010026F0EFFE45F65A0306F5DE
:102E88000C66C4F2207344F6415743F274216C2255
:102E9800002506EB0A002360C5F245375423C2F229
:102EA800010108266760E672A573E5732274A274AF
:102EB80022766374E374637600F00AFAA84214BFBA
:102EC8000B20284601E700BF4FF46051C4F200010F
:102ED80044F2010300E033B30A89013B12F0020F08
:102EE8009BB2F8D043F60C03C4F20003FF221A7019
:102EF8000B89DB070ED44FF46051C4F200014FF484
:102F0800804300E07BB100BF0A89013B12F0010F4A
:102F18009BB2F7D043F60C03C4F2000300221B78DF
:102F28000370104670470122104670474FF46051F5
:102F3800C4F2000144F2010300E01BB30A89013B1B
:102F480012F0020F9BB2F8D043F60C03C4F2000350
:102F580018700B89DB070ED44FF46052C4F20002DC
:102F68004FF4804000E0A8B100BF1389013813F086
:102F7800010F80B2F7D043F60C03C4F200031878AF
:102F8800C0B2704740F21512C2F200020121184681
:102F98001170704740F21513C2F2000302221A7032
:102FA800704700BF2DE9F04F4FF40063C4F20203ED
:102FB8004FF4005287B05A834CF6FF7480460D4692
:102FC800C0F2070400F0D9FB04E000F0D6FB013C96
:102FD80000F0D780FF28F8D129460022592000F0B8
:102FE80001FCFF2805460DD100F0C7FB40F6FD7433
:102FF800054605E000F0C1FB013C054600F0CC8029
:10300800FF2DF7D0002D6CD140F2121640F25C046F
:10301800C2F20006C2F20004B8F1000F38D0CDF8B1
:1030280004804FF06409AB46FC2000F072FB4FF4BB
:10303800007A074602E0BAF1000F0ED0002000F037
:1030480068FB0AF1FF331FFA83FA0028F3D104253D
:10305800284650E000F091FB0746FF2FFAD007F012
:103068001F07052F40F0BB8000F087FB0028FBD02E
:10307800019B013B9A06019340F09080B9FBF8F060
:10308800C0B2632840F28D8009F16409002BCBD1CE
:10309800FD2000F03EFB00F070FB00F06EFB338873
:1030A8000020216803EB431203EB42021144013371
:1030B800C87421680A449BB21075318801F10B026B
:1030C8009A42EEDA4AF28C22C0F60202972003F006
:1030D800D3FF4FF40063C4F202034FF400521A8383
:1030E8004BE0032540F2121640F25C042846C2F277
:1030F8000006C2F200044FF40063C4F202034FF466
:10310800005203AF1A83394607F049FC3288002081
:10311800216802EB421302EB430319440132C874DD
:103128002168194492B208752168194448752168C4
:103138001944887521681944C875216819440876A6
:103148002168194448762168194488762168194409
:10315800C87621680B441877318801F10B03934234
:10316800D6DA3A469A2003F087FF4AF2902231884D
:10317800C0F60202A02003F07FFF284607B0BDE892
:10318800F08F012040F2121640F25C040546C2F2AC
:103198000006C2F20004AEE70225A3E709F16409BC
:1031A80042E703AF394607F0FAFB3388226803EB9E
:1031B800431103EB41010A44013382F813B022683A
:1031C8000A449BB282F814B0318801F10B029A428A
:1031D800ECDA3A469A2003F04FFF019B54E70625A4
:1031E800284688E7F0B54FF4006383B0C4F20203C1
:1031F80002AD4FF0000E4FF400524DF2010405F8F5
:1032080001ED07460E46C0F207045A8305E0013C6B
:103218003ED09DF80730FF2B13D02846FFF754FE09
:103228000028F4D001244FF40063C4F202034FF4E1
:1032380000521A830721002001F0BCFA204603B08F
:10324800F0BD02463946512000F0CCFA40F63A5417
:1032580003468DF80700C0F2040406E0FFF734FEC9
:10326800A0B9013C16D09DF80730FE2B2846F5D1B1
:1032780006F5007501E0AE420ED03046FFF724FE99
:10328800013604460028F6D00624CCE70424CAE711
:103298000224C8E70524C6E740F21515C2F2000566
:1032A800FF20FFF743FE2E7816B12C700724BAE7EB
:1032B800FF20FFF73BFE2C7814B12E700824B2E7EC
:1032C8004FF40063C4F202034FF400521A83B5E7C7
:1032D8002DE9F0414FF4006382B0C4F2020302AD5D
:1032E8004FF0000E4FF400524DF2010405F801EDC5
:1032F80006460F46C0F207045A8305E0013C36D063
:103308009DF80730FF2B16D02846FFF7DDFD002873
:10331800F4D0012214464FF40063C4F202034FF4C0
:103328000051198300BF0621012001F043FA20460D
:1033380002B0BDE8F08102463146582000F052FA4A
:1033480049F6EC7406468DF8070006E0FFF7BCFD69
:1033580050B9013C0ED09DF80760FF2E2846F5D0E5
:103368005EB106221446D6E704221446D3E70222A9
:103378001446D0E705221446CDE740F21518C2F2EC
:103388000008FE20FFF7D2FD98F8003023B107228D
:1033980088F800601446BEE77E1E07F2FF1701E0BA
:1033A800B74210D016F8010FFFF7C0FD98F800409B
:1033B8008DF807000346002CF2D00023082288F875
:1033C80000301446A7E748F29D66C0F2020606E000
:1033D800FFF77AFD68B9013E0ED09DF80730FF2B44
:1033E8002846F5D003F01F03052B08D00B242246EE
:1033F80091E7092422468EE70A2422468BE74FF4F8
:103408000063C4F202034FF400521A838FE700BF2F
:103418002DE9F8434FF40063C4F202034FF400545B
:103428005C834CF6FF7480460D461646C0F20704CE
:1034380000F0A3F903E000F0A0F9013C3CD0FF281C
:10344800F9D129460022592000F0CCF9FF28054679
:103458000CD100F092F940F6FD74054604E000F046
:103468008CF9013C054629D0FF2DF8D0ADB9B8F14B
:10347800000F4DD0FC2000F04CF93446814606F58B
:10348800007701E0A7421BD014F8010B00F041F9C6
:1034980026460028F6D1042500E003254FF40063F2
:1034A800C4F202034FF400521A830521012001F0EF
:1034B80081F92846BDE8F8830125EFE70225EDE705
:1034C800B9F1FF0F0FD100F058F948F29C64C0F22F
:1034D8000204814604E000F050F9013C814626D000
:1034E800B9F1FF0FF7D009F01F09B9F1050F20D185
:1034F8004CF6FF74C0F2070400F03FF928B900F059
:103508003CF9013CFAD10725C8E7B8F10108B1D167
:10351800FD2000F0FEF800F030F900F02EF94FF42D
:103528000063C4F202034FF400521A83C1E7052571
:10353800B4E70625B2E700BFF8B54FF40063C4F25C
:1035480002034FF400545C834CF6FF7406460F46A2
:103558001546C0F2070400F010F903E000F00DF979
:10356800013C3AD0FF28F9D100223946522000F018
:1035780039F9FF280AD100F000F940F6FD7403E09C
:1035880000F0FBF8013C2AD0FF28F9D0AEB3FE28A2
:103598000AD000F0F2F84FF6F97403E000F0EDF805
:1035A800013C1ED0FE28F9D105F5007401E0A542C2
:1035B80019D02846FFF788FC01350028F7D00924E0
:1035C8004FF40063C4F202034FF400521A8305213A
:1035D800012001F0EFF82046F8BD0124F0E70224AD
:1035E800EEE70324ECE700F0C8F800F0C6F800F0B6
:1035F800C4F800F0C2F8013EC9D1002239464C2077
:1036080000F0F0F84FF40063C4F202034FF40052E4
:103618001A830024DFE700BF80B485B000AF78606C
:103628000023FB6003E000BFFB680133FB607B689D
:1036380040F6C41202FB03F2FB689A42F3D800BFBB
:103648001437BD465DF8047B704780B582B000AF83
:1036580001214FF48040FDF745F803237B710023D7
:10366800BB7102233B710123FB714FF440433B6064
:103678003B4619464FF48060C4F20200FCF762FE34
:1036880005220E214FF48060C4F20200FCF7E8FE28
:1036980005220F214FF48060C4F20200FCF7E0FE1F
:1036A80003237B710023BB7102233B710123FB7150
:1036B8004FF480633B603B4619464FF48060C4F288
:1036C8000200FCF73FFE05220A214FF48060C4F295
:1036D8000200FCF7C5FE03237B710023BB710123A5
:1036E8003B710123FB714FF400533B603B46194685
:1036F8004FF40060C4F20200FCF724FE4FF40063AC
:10370800C4F202034FF400521A8300BF0837BD46C3
:1037180080BD4FF46051C4F200010B899B070BD4A4
:1037280000BF4FF4805303E000BF013B9BB213B3CB
:1037380000BF0A899207F7D543F60C03C4F20003C9
:103748004FF46051C4F2000118700B89D8070BD4EC
:1037580000BF4FF4805303E000BF013B9BB253B15D
:1037680000BF0A89D207F7D543F60C03C4F2000359
:103778001878C0B27047002070474FF46051C4F207
:1037880000010B8998070BD400BF4FF4805303E066
:1037980000BF013B9BB21BB300BF0A899207F7D554
:1037A80043F60C03C4F200034FF46051FF22C4F245
:1037B80000011A700B89D8070BD400BF4FF480534F
:1037C80003E000BF013B9BB253B100BF0A89D20797
:1037D800F7D543F60C03C4F200031878C0B270475B
:1037E8000020704780B584B000AF03463960FB7194
:1037F8001346BB71FF23FB733B46BB604FF48053FA
:10380800BB81FF20FFF785FFFB7943F04003DBB264
:103818001846FFF77EFFBB6803331B781846FFF78F
:1038280078FFBB6802331B781846FFF772FFBB6846
:1038380001331B781846FFF76CFFBB681B781846E6
:10384800FFF767FFBB791846FFF763FF0AE0FFF74A
:1038580094FF0346FB73BB895A1EBA81002B01D122
:10386800002303E0FB7BFF2BF1D0FB7B18461037CE
:10387800BD4680BD90B5A7B000AF032387F843309D
:103888000023A7F894300023A7F892300023A7F864
:10389800903040F24F13C2F200031B7823F002036A
:1038A800DAB240F24F13C2F200031A704FF46053B9
:1038B800C4F200034FF441721A804FF46053C4F20B
:1038C80000034FF46052C4F20002128892B242F030
:1038D800380292B21A804FF46053C4F200034FF4D6
:1038E8006052C4F20002128892B242F0400292B2D0
:1038F8001A800023A7F89430B7F892300133A7F85C
:1039080092304FF40063C4F202034FF400521A835A
:10391800502387F8973007E0FF20FFF7FAFE97F863
:103928009730013B87F8973097F89730002BF3D101
:103938004FF40063C4F202034FF400525A83002389
:1039480087F8973006E0FFF718FF97F897300133AC
:1039580087F8973097F897304F2BF4D995220021A4
:103968000020FFF73FFF034687F896302FE1FFF767
:1039780004FF034687F89630B7F894300133A7F868
:103988009430B7F89430B3F57A4F40F2208197F825
:1039980043309BB2B7F892209A4257D2B7F8923088
:1039A80001333A461146184606F0F9FF034687F8F0
:1039B800423097F842203B461146184603F0ECFA8D
:1039C800034687F8413000E000BF4FF40063C4F2BB
:1039D80000035B6A772BF7D90023A7F88E3023E022
:1039E8001623A7F88C3016E040F25C03C2F20003FD
:1039F8001968B7F88E2013465B0113445B001A441C
:103A0800B7F88C3013440B4400221A70B7F88C3086
:103A18000133A7F88C30B7F88C30172BE4D9B7F8F6
:103A28008E300133A7F88E30B7F88E30092BD7D9EE
:103A380097F841309BB2C3F1C0039BB23A460021CC
:103A4800184603F019FB00BF53E700BF4FF40063AB
:103A5800C4F200035B6A772BF7D90023A7F88A30F2
:103A680023E01623A7F8883016E040F25C03C2F280
:103A780000031968B7F88A2013465B0113445B00FA
:103A88001A44B7F8883013440B4400221A70B7F868
:103A980088300133A7F88830B7F88830422BE4D94A
:103AA800B7F88A300133A7F88A30B7F88A300A2B7A
:103AB800D7D90023A7F8863026E01623A7F8843044
:103AC80019E040F25C03C2F200031968B7F88620D7
:103AD80013465B0113445B00134403F5E2431033C0
:103AE800B7F8842013440B4442221A70B7F8843084
:103AF8000133A7F88430B7F88430422BE1D9B7F8FE
:103B080086300133A7F88630B7F88630022BD4D92F
:103B180049F68842C0F602020021B42003F0ACFA4C
:103B280049F6B442C0F602020C21B42003F0A4FA0C
:103B38000323A7F8823026E01623A7F8803019E07F
:103B480040F25C03C2F200031968B7F882201346FA
:103B58005B0113445B00134403F5E2431033B7F8E9
:103B6800802013440B4445221A70B7F88030013383
:103B7800A7F88030B7F88030422BE1D9B7F8823007
:103B88000133A7F88230B7F88230052BD4D949F62B
:103B9800DC42C0F602021821B42003F06DFA49F69F
:103BA8000052C0F602022421B42003F065FA40F264
:103BB8001213C2F2000330221A804FF40063C4F2D9
:103BC80002034FF400521A83012300F0EFBD97F867
:103BD8009630012B7FF4CBAE4FF40063C4F202039E
:103BE8004FF400521A834FF40063C4F202034FF4F7
:103BF80000525A8387224FF4D5710820FFF7F2FD4F
:103C0800034687F896300023A7F8943014E0FFF7AE
:103C1800B4FD034687F89630B7F894300133A7F817
:103C28009430B7F89430802B06D9B7F8903043F029
:103C38000203A7F89030FEE197F89630012BE6D101
:103C48004FF40063C4F202034FF400521A830023B6
:103C5800A7F894304FF40063C4F202034FF4005203
:103C68005A830023A7F894300023A7F89230FFF76F
:103C780084FD034687F89630B7F892300133A7F8E9
:103C88009230B7F89430802B06D9B7F8903043F4C7
:103C98000063A7F89030CEE197F89630FF2BE6D175
:103CA800FF2200213720FFF79DFD034687F8963055
:103CB80015E0FFF762FD034687F89630B7F89230B3
:103CC8000133A7F89230B7F89230B3F57A5F06D986
:103CD800B7F8903043F48063A7F89030ABE197F8D9
:103CE8009630FF2BE5D00023A7F89230FFF745FD6B
:103CF800034687F89630B7F892300133A7F8923028
:103D0800B7F89430802B06D9B7F8903043F4805335
:103D1800A7F890308FE197F89630FF2BE6D1FF2275
:103D28004FF080412920FFF75DFD034687F8963064
:103D38000023A7F8923015E0FFF71FFD034687F828
:103D48009630B7F892300133A7F89230B7F892302E
:103D5800B3F57A5F06D9B7F8903043F40073A7F843
:103D6800903068E197F89630FF2BE5D04FF4006368
:103D7800C4F202034FF400521A83B7F894300133A7
:103D8800A7F89430B7F894304FF6DC72934206D90E
:103D9800B7F8903043F00403A7F890304BE197F858
:103DA8009630002B7FF456AF4FF40063C4F2020341
:103DB8004FF400521A834FF40063C4F202034FF425
:103DC80000525A83002200213B20FFF70BFD0346D7
:103DD80087F896304FF40063C4F202034FF40052A0
:103DE8001A83FF20FFF795FC97F89630002B06D032
:103DF800B7F8903043F00803A7F890301BE14FF470
:103E08000063C4F202034FF400525A83FF224FF4B6
:103E180000711020FFF7E6FC034687F896304FF450
:103E28000063C4F202034FF400521A83FF20FFF725
:103E380070FC97F89630002B06D0B7F8903043F016
:103E48001003A7F89030F6E0002387F8973005E0D4
:103E580000BF97F89730013387F8973097F8973075
:103E68003F2BF5D94FF46053C4F200034FF460526E
:103E7800C4F20002128892B222F0400292B21A8072
:103E88004FF46053C4F200034FF46052C4F20002CE
:103E9800128892B222F0380292B21A804FF460531C
:103EA800C4F200034FF46052C4F20002128892B2C6
:103EB80042F0080292B21A804FF46053C4F2000331
:103EC8004FF46052C4F20002128892B242F04002EB
:103ED80092B21A804FF40063C4F202034FF4005206
:103EE8001A83002387F8973007E0FF20FFF711FCBB
:103EF80097F89730013387F8973097F89730272B42
:103F0800F3D94FF40063C4F202034FF400525A830A
:103F1800002200210920FFF765FC034687F8963048
:103F280097F89630002B06D0B7F8903043F020036E
:103F3800A7F890307FE00023A7F8943000E000BF96
:103F4800FFF71BFC0346FE2BF9D1002387F89730B7
:103F58000FE097F89740FFF710FC03461A4607F161
:103F68009803234403F88C2C97F89730013387F88B
:103F7800973097F897300F2BEBD9FFF7FEFBFFF739
:103F8800FCFB4FF40063C4F202034FF400521A839F
:103F9800FF20FFF7BEFB0023A7F894304FF400631F
:103FA800C4F202034FF400525A83002200210A206F
:103FB800FFF718FC034687F8963097F89630002BE1
:103FC80019D0B7F8903043F08003A7F8903032E06A
:103FD800FFF7D3FB034687F89630B7F894305A1C9E
:103FE800A7F89420802B06D9B7F8903043F4807353
:103FF800A7F890301FE097F89630FE2BE8D1002301
:1040080087F897300FE097F89740FFF7B6FB03461D
:104018001A4607F19803234403F87C2C97F8973045
:10402800013387F8973097F897300F2BEBD9FFF7C4
:10403800A4FBFFF7A2FB4FF40063C4F202034FF4A2
:1040480000521A83FF20FFF764FBB7F89030202B4B
:1040580000F01383202B14DC022B00F0DE81022BEE
:1040680005DC002B2DD0012B00F0B1819DE3082B3E
:1040780000F0B782102B00F0DA82042B00F01982CE
:1040880093E3B3F5007F00F0EE81B3F5007F0ADC1F
:10409800802B00F03E83B3F5807F00F06083402BD7
:1040A80000F0118381E3B3F5006F00F04E82B3F5A1
:1040B800805F00F07082B3F5806F00F0208274E3B7
:1040C80000BF4FF40063C4F200035B6A772BF7D993
:1040D8000023A7F87E3023E01623A7F87C3016E0EB
:1040E80040F25C03C2F200031968B7F87E20134659
:1040F8005B0113445B001A44B7F87C3013440B444B
:1041080000221A70B7F87C300133A7F87C30B7F872
:104118007C30422BE4D9B7F87E300133A7F87E30E3
:10412800B7F87E300B2BD7D90023A7F87A3026E0D2
:104138001623A7F8783019E040F25C03C2F20003B6
:104148001968B7F87A2013465B0113445B001344DF
:1041580003F5E2431033B7F8782013440B444422A4
:104168001A70B7F878300133A7F87830B7F8783094
:10417800422BE1D9B7F87A300133A7F87A30B7F88B
:104188007A300B2BD4D949F63452C0F602020021FA
:10419800B42002F071FF07F11C0309331A6840F2DA
:1041A800B803C2F200031A6040F2B803C2F2000377
:1041B8001B6807F12C021146184606F0F0FB49F679
:1041C8004852C0F602020C21B42002F055FF034603
:1041D800A7F89430B7F8943002339BB207F12C0259
:1041E8000C21184602F048FF0346A7F8943097F8C8
:1041F80029301B021AB297F82A301BB213431BB29C
:10420800A7F8923049F65C52C0F602021821B42091
:1042180002F032FF0346A7F89430B7F8943002331F
:1042280098B2B7F8923003F00F021346DB0013443C
:104238004AF67C12C0F6060213441A46182102F008
:104248001BFF0346A7F89430B7F8943002339BB2AB
:1042580049F67052C0F602021821184602F00CFF07
:104268000346A7F89430B7F892301B1103F07F0388
:1042780003F5FA6307F12C021146184606F08FFB86
:10428800B7F8943002339BB207F12C021821184674
:1042980002F0F2FE0346A7F894307B7D1A4640F2FE
:1042A800B803C2F200031A603B7D1A0240F2B80359
:1042B800C2F200031B681A4340F2B803C2F20003BB
:1042C8001A60FB7C1B0403F47C1240F2B803C2F2B0
:1042D80000031B681A4340F2B803C2F200031A60D5
:1042E80040F2B803C2F200031B685A1C40F2B8033C
:1042F800C2F200031A6040F2B803C2F200031B685E
:104308009A0240F2B803C2F200031A603B7DA7F894
:104318009230FB7C1B021BB203F47C531AB2B7F930
:10432800923013431BB2A7F89230B7F89230DB08EB
:104338009BB2DBB2013387F8973097F8973007F1D3
:104348002C021146184606F06AFA49F67452C0F66D
:1043580002022421B42002F08FFE0346A7F894300D
:10436800B7F8943002339BB207F12C022421184687
:1043780002F082FE0346A7F89430B7F8943002336F
:104388009BB249F68852C0F602022421184602F070
:1043980073FE0346A7F8943040F21413C2F20003E8
:1043A80001221A7040F21213C2F2000330221A805E
:1043B80040F24F13C2F200031B7843F00203DAB253
:1043C80040F24F13C2F200031A700023EEE10023FB
:1043D8007B670DE040F25C03C2F200031B687A6F52
:1043E80002F5C252134402221A707B6F01337B67B5
:1043F8007B6F1F2BEEDD4FF27843C2F2010340F2D0
:104408004002C2F200021A6049F68C52C0F602025B
:104418001021002002F0F0FEC7E100233B670DE009
:1044280040F25C03C2F200031B683A6F02F5C25205
:10443800134402221A703B6F01333B673B6F1F2BFB
:10444800EEDD4FF27843C2F2010340F24002C2F2BD
:1044580000021A6049F6A852C0F602021021002094
:1044680002F0CAFEA1E10023FB660DE040F25C0306
:10447800C2F200031B68FA6E02F5C252134402220C
:104488001A70FB6E0133FB66FB6E1F2BEEDD4FF2DD
:104498007843C2F2010340F24002C2F200021A60FD
:1044A80049F6C452C0F602021021002002F0A4FE10
:1044B8007BE10023BB660DE040F25C03C2F200031F
:1044C8001B68BA6E02F5C252134402221A70BB6E00
:1044D8000133BB66BB6E1F2BEEDD4FF27843C2F291
:1044E800010340F24002C2F200021A6049F6EC529F
:1044F800C0F602021021002002F07EFE55E10023E2
:104508007B660DE040F25C03C2F200031B687A6E22
:1045180002F5C252134402221A707B6E01337B6685
:104528007B6E1F2BEEDD4FF27843C2F2010340F29F
:104538004002C2F200021A6049F61462C0F6020292
:104548001021002002F058FE2FE100233B660DE009
:1045580040F25C03C2F200031B683A6E02F5C252D5
:10456800134402221A703B6E01333B663B6E1F2BCD
:10457800EEDD4FF27843C2F2010340F24002C2F28C
:1045880000021A6049F63C62C0F6020210210020BF
:1045980002F032FE09E10023FB650DE040F25C0306
:1045A800C2F200031B68FA6D02F5C25213440222DC
:1045B8001A70FB6D0133FB65FB6D1F2BEEDD4FF2AF
:1045C8007843C2F2010340F24002C2F200021A60CC
:1045D80049F66462C0F602021021002002F00CFEC7
:1045E800E3E00023BB650DE040F25C03C2F2000388
:1045F8001B68BA6D02F5C252134402221A70BB6DD1
:104608000133BB65BB6D1F2BEEDD4FF27843C2F261
:10461800010340F24002C2F200021A6049F68C62BD
:10462800C0F602021021002002F0E6FDBDE00023E2
:104638007B650DE040F25C03C2F200031B687A6DF3
:1046480002F5C252134402221A707B6D01337B6556
:104658007B6D1F2BEEDD4FF27843C2F2010340F26F
:104668004002C2F200021A6049F6AC62C0F60202C9
:104678001021002002F0C0FD97E000233B650DE00B
:1046880040F25C03C2F200031B683A6D02F5C252A5
:10469800134402221A703B6D01333B653B6D1F2B9F
:1046A800EEDD4FF27843C2F2010340F24002C2F25B
:1046B80000021A6049F6D062C0F6020210210020FA
:1046C80002F09AFD71E00023FB640DE040F25C0308
:1046D800C2F200031B68FA6C02F5C25213440222AC
:1046E8001A70FB6C0133FB64FB6C1F2BEEDD4FF281
:1046F8007843C2F2010340F24002C2F200021A609B
:1047080049F6F062C0F602021021002002F074FDA2
:104718004BE00023BB640DE040F25C03C2F20003EF
:104728001B68BA6C02F5C252134402221A70BB6CA1
:104738000133BB64BB6C1F2BEEDD4FF27843C2F232
:10474800010340F24002C2F200021A6049F61072F8
:10475800C0F602021021002002F04EFD25E00023E1
:104768007B640DE040F25C03C2F200031B687A6CC4
:1047780002F5C252134402221A707B6C01337B6427
:104788007B6C1F2BEEDD4FF27843C2F2010340F23F
:104798004002C2F200021A6049F63072C0F6020204
:1047A8001021002002F028FD00BF012318469C3785
:1047B800BD4690BD40F21413C2F200031B78DB071C
:1047C80040F1978070B540F21013C2F2000315460D
:1047D8001B780646002B45D040F25C01C2F200016E
:1047E8004FF4C96E00240EF13B0073460A68D45496
:1047F80001339842FAD10EF1430EBEF5496FF2D15A
:1048080047F2D913422047F214240A68D0540A68A0
:104818001A4482F843000A681A440133A34282F812
:104828008600F2D14FF27843C2F2010340F230021F
:10483800C2F20002012E1A600BBF49F6507249F607
:104848006072C0F60202C0F6020218210820013D7B
:1048580002F012FC072D46D8DFE805F0CAC1B8AF50
:10486800A69D948B4FF27843C2F2010340F24002B6
:10487800C2F2000240F25C01012E1A60C2F200018D
:104888004FF4C0534FF0020016D00A68D0540133D9
:10489800B3F5C15FF9D149F660720021C0F6020292
:1048A800084602F0A9FC013D072D1CD8DFE805F0F9
:1048B800584F463D34132B220A68D0540133B3F5C0
:1048C800C15FF9D1002149F65072C0F602020846CC
:1048D80002F092FCE7E749F6B472C0F60202002142
:1048E800602002F089FC4FF4FA50BDE87040FEF7F2
:1048F80093BE704749F6CC72C0F6020200216020D0
:1049080002F07AFCEFE749F6C072C0F60202002115
:10491800602002F071FCE6E749F6A872C0F60202D0
:104928000021602002F068FCDDE749F69C72C0F6C1
:1049380002020021602002F05FFCD4E749F68C7285
:10494800C0F602020021602002F056FCCBE749F6CF
:104958008072C0F602020021602002F04DFCC2E71E
:1049680049F67072C0F602020021602002F044FC91
:10497800B9E749F6CC72C0F602022421082002F0F9
:104988007BFBB0E749F6C072C0F60202242108207A
:1049980002F072FBA7E749F6B472C0F602022421BE
:1049A800082002F069FB9EE749F6A872C0F60202E9
:1049B8002421082002F060FB95E749F69C72C0F6B6
:1049C80002022421082002F057FB8CE749F68C727A
:1049D800C0F602022421082002F04EFB83E749F6C4
:1049E8008072C0F602022421082002F045FB7AE713
:1049F80049F67072C0F602022421082002F03CFB3E
:104A080071E700002DE9F04F40F2CD0AC2F2000A2A
:104A180040F250199AF80030DD00EA1AC2F2000993
:104A280009EBC20240F2CF0492F8320040F2D006FD
:104A380083B0C2F20004C2F20006002800F03282FD
:104A4800227896F9001002F07F070029277033DBDF
:104A580040F2CE01C2F2000102F079020978227018
:104A6800090702D542F020022270EB1A09EBC303B2
:104A780093F8303013B942F00402227040F2D07239
:104A880040F2C803C2F20002C2F2000312681968B9
:104A9800914211D240F2520140F2D105C2F2000116
:104AA800C2F2000509882D780A4485421A6003D8A5
:104AB800237843F00203237040F2CC08C2F20008C6
:104AC80040F2D102C2F2000298F800300092802B26
:104AD80000F2E581DFE813F0FC040804D403E301E5
:104AE800E402E301E301E301CD02E301E301E301B1
:104AF800E301E301E301E301D202C5036503E30136
:104B0800E301E301E301E301E301E301E301E3017D
:104B1800E301E301E301E301F9026E02DC04260389
:104B2800E301E301E301E301E301E301E301E3015D
:104B3800E301E301E301E301E301E301E301E3014D
:104B4800E301E301E301E301E301E301E301E3013D
:104B5800E301E301E301E301A202E301E301E3016D
:104B6800E301E301E301E301E301E301E301E3011D
:104B7800E301E301E301E301E301E301E301E3010D
:104B8800E301E301E301E301E301E301E301E301FD
:104B9800E301E301E301E301E301E301E301E301ED
:104BA800E301E301E301E301E301E301E301E301DD
:104BB800E301E301E301E301E301E301E301E301CD
:104BC800E301E301E301E301E301E301E301E301BD
:104BD800E301E301E301E30101039AF80000BEF8F1
:104BE80018102B69C0EBC00009EBC0091C3189B251
:104BF800D9F82C70E9820B4407EB532740F2550E85
:104C080043F27423C2F20103C2F2000E42F0020220
:104C1800227019464022384600932F608EF80020F3
:104C2800FEF7E0FAE88A2969009B421C92B2084420
:104C3800C0F308005418C4F3080703F800B0EA8268
:104C4800002F00F0E486013292B2C4F30804501831
:104C580000271F55C0F30804EA82002C00F00187E2
:104C68000132C0F3080492B2501800271F55C0F350
:104C78000804EA82002C00F0DC860132C0F3080444
:104C880092B2501800271F55C0F30804EA82002C7E
:104C980000F047870132C0F3080492B25018002789
:104CA8001F55C0F30804EA82002C00F02287013265
:104CB800C0F3080492B2501800271F55C0F3080427
:104CC800EA82002C00F0FD860132C0F3080492B29B
:104CD800501800271F55C0F30804EA82002C00F082
:104CE800D8860132C0F3080492B2501800271F5525
:104CF800C0F30804EA82002C00F057860132C0F3A2
:104D0800080492B2501800271F55C0F30804EA821D
:104D1800002C00F032860132C0F3080492B2501819
:104D280000271F55C0F30804EA82002C00F00D8606
:104D38000132C0F3080492B2501800271F55C0F37F
:104D48000804EA82002C00F0E885013292B2C0F330
:104D5800080054180027C4F30804EA821F54002CE2
:104D680000F03B86013292B25018A127C0F3080028
:104D7800EA821F55B8B943F27421C2F201012868CA
:104D88000093FEF7A5FA2A6843F27421013210460F
:104D9800C2F201012A60FEF725FA2969EA8A009B16
:104DA8005018C0F30800013292B25418A127C4F376
:104DB8000804EA821F54BCB943F27421C2F201010B
:104DC80028680093FEF784FA2A6843F274210132B6
:104DD8001046C2F201012A60FEF704FA2969EA8A3C
:104DE800009B5418C4F30804013292B25018A1274A
:104DF800C0F30800EA821F55B8B943F27421C2F221
:104E0800010128680093FEF763FA2A6843F27421C7
:104E180001321046C2F201012A60FEF7E3F929695E
:104E2800EA8A009B5018C0F308003478013292B225
:104E38001144E407C1F3080140F15685F824EA82D9
:104E48001C54002900F05685EB7903EB830305EB2E
:104E5800430340F25202C2F2000240F2D071C2F2A1
:104E680000015B7F12880C6880269E4040F2C000DB
:104E780040F2C40140F2540302EBC202C2F2000045
:104E8800C2F20001C2F2000304EBE2122327AE8251
:104E98000124022502600F701D7088F8004003B0DD
:104EA800BDE8F08F237896F9002063F07F01002A8F
:104EB8002170FFF601AE40F2D07140F2C802C2F292
:104EC8000001C2F200020868116823F0060363F0CB
:104ED8007F03884223707FF6EFAD40F25203C2F29F
:104EE80000031B8818441060E6E501F0F00EBEF1DF
:104EF800C00F00F066849F0007EB030E019705EBD7
:104F08004E0E009F9EF81AB097F800C0E345C6D130
:104F180040F2D20CC2F2000C9EF81CB09CF800C003
:104F2800E345BCD18F0704D59EF81BE0BEF1000F06
:104F3800B5D1019F07EB030E05EB4E0E9EF821C07D
:104F48001CF0010B40F0CB8489063FF546AE9EF875
:104F580020100029A3D01CF0040F1CBF42F020022F
:104F680022703A461A4405EB42039AF8002093F857
:104F78001DE004BF20F028002070C2EBC202188B8D
:104F880009EBC20201442869D26A8BB21844802115
:104F980002EB502201FA0EFE43F27421C2F2010123
:104FA8001046EB822A60A5F814E0FEF71BF92123CE
:104FB80088F8003040F2550BC2F2000B9BF8003025
:104FC8005D0600F1A98240F23025C2F2000540F2E8
:104FD8005403C2F20003AA8A02211970002A40F081
:104FE800A283327802F0E003802B40F0E5822B7A2E
:104FF80003EB830305EB430393F82130980700F193
:10500800BA81D10640F1D88240F2D203C2F200033D
:1050180040211A7888F8001001321A70337803F0AA
:10502800E002A02A00F0C28103F0F002F02A00F0AA
:10503800BD8103F0C002802A00F00D8203F0F8035E
:10504800C02B00F00882F02B00F02184E02BAED0BA
:1050580040F2550BC2F2000B002388F80030237889
:10506800BF2223F0010323708BF8002003B0BDE8B2
:10507800F08F337813F0100300F0508140F2D3031F
:10508800C2F20003009A1B781278934200F0DB8189
:10509800C0F04C8140F25003C2F2000301221A70A2
:1050A8009AF80020D500AB1A09EBC30393F8300037
:1050B8003378002840F03B8213F0F00140F037824B
:1050C800009A2023117088F8003033785B07BFD529
:1050D80000F040FD98F80030F9E49AF80030C3EB8E
:1050E800C30309EBC30999F83030002B40F0128153
:1050F80088F8003040F2520340F2D072C2F2000247
:10510800C2F2000310681B8840F2C80140F2C002D6
:10511800C2F20001C2F2000203440B60136003B044
:10512800BDE8F08F40F2550BC2F2000B9BF800303F
:105138005F0600F1F18140F23025C2F2000540F22D
:105148005403C2F20003AA8A02211970002A40F00F
:105158004782EB8A2A69581C991880B243F2742353
:105168000244C1F30801C2F201034FF0FF0EC2F37B
:105178000802E88203F801E0002A00F02E8143F2D9
:1051880074212868C2F20101AA259D54FEF7A0F8EF
:10519800337813F010037FF437AF88F800302370AA
:1051A8005DE740F2550BC2F2000B9BF800305B063E
:1051B80040F1C38040F25402C2F200021378002B7F
:1051C80040F06183217840F2D302C2F2000241F03C
:1051D80004012170137040F23025C2F2000543F239
:1051E80074272869EA8AA98A1618C6F30806C2F23B
:1051F8000107BB55013292B210444B1E9BB2C0F35B
:105208000800EA82AB82002800F0BA80002B3FF445
:1052180023AF40F2520240F2D073C2F20002C2F24F
:10522800000316881D68227840F2C000C2F2000010
:1052380040F2540105EBD615C2F20001056040F2B8
:10524800C4030220C2F2000342F0020212250870D1
:105258004020012122701D708BF8000088F8001092
:105268001DE62378590640F1018243F00403002229
:1052780040F2550B237088F80020C2F2000BEEE6CE
:1052880040F2D072C2F2000223781568367840F2F4
:10529800C000C2F2000040F2550140F2C402A43539
:1052A80023F05A03C2F20001C2F20002056043F083
:1052B80001030025082016F0E00F23700D70107010
:1052C8000CD0730608D540F25003B706C2F20003AB
:1052D8004CBFFF210121197004231370012388F8A2
:1052E800003003B0BDE8F08F40F2D07240F2C00346
:1052F800C2F20002C2F2000312681B689A42FFF46D
:10530800CEAD40F2C403C2F200031B7888F8003027
:10531800FFF7DDBB013B89F83030EBE640F2D30202
:10532800C2F20002FF211370009B197040F2500373
:10533800C2F20003FF221A70B2E640F2D303C2F2AF
:1053480000031B78F62B00F09280F72B59D0F52B31
:105358007FF441AF40F23025C2F2000543F27426D3
:105368002869EA8AA98A1318C3F30803C2F2010656
:10537800A127F7543EE7237843F00803237040E65B
:1053880043F27421C2F201012868FDF7A1FF2B68DE
:1053980043F2742101331846C2F201012B60FDF774
:1053A80021FFAB8A002B3FF457AE32E79AF8002072
:1053B800C2EBC20209EBC20292F93620002ABFF6FC
:1053C80038AE2378002243F0400340F2550B237097
:1053D80088F80020C2F2000B41E6194628680193BC
:1053E800FDF776FF2A68019B0132194610462A60AC
:1053F800FDF7F8FEEA8A2969019B0A44C2F308020C
:10540800BDE640F23025C2F2000543F27423E98A72
:105418002869B5F814E04A1C92B20144C1F30806A1
:1054280017180EF1FF31C2F201034FF0FF0E89B2D7
:10543800C7F30807EA8203F806E0A982002F4CD0D8
:10544800AA26DE55D6E6202388F8003033785B0795
:105458007FF5FEAD3CE640F25403C2F2000302229F
:105468001A7000F077FB98F80030FFF730BB40F275
:105478003025C2F2000543F274262869EA8AA98A0F
:105488001318C3F30803C2F20106C227F754B1E6A2
:1054980040F23025C2F200050DE02078317800F0A6
:1054A800F7020F0622703FF520AD009B9EF81A10F8
:1054B8001B78994226D000F04DFBEB7903EB830271
:1054C800FF2B05EB420EE8D198F80030FFF7FFBA42
:1054D80040F2550BC2F2000BC1E51946286800934B
:1054E800FDF7F6FE2A68009B0132194610462A602D
:1054F800FDF778FE2869EA8AA98A009B1718C7F37E
:1055080008079DE79EF8213013F0010F42F00802CA
:105518003FF49EAD2270CEE740F25403C2F200037E
:105528001A78002A00F0F180013A1A70B7E413F0F3
:10553800E00440F2500148D0DE0646D4C2F2000131
:1055480009780144C9B2AA1AFF2909EBC20900F077
:10555800348155298ABF562289F8301089F83020BD
:105568004AF20851C0F6060103F0030340F2D07274
:10557800CB5CC2F2000203EB830103EBC10340F2F0
:1055880052059B00126840F2C80040F2C001C2F206
:1055980000059BB2C2F20000C2F200011A442B803F
:1055A80040F2C40302600A60C2F20003002C00F05B
:1055B800F28020221A7091E602F0F002C02A00F070
:1055C800ED80002388F8003069E440F2D106C2F289
:1055D8000006C2F20001377809780F443770B0E747
:1055E800E98A2B69481C40F2D30780B21944C2F2F9
:1055F800000743F274260344C1F30801C2F201060E
:105608003F78E882C3F3080377545BB931462868CA
:10561800FDF75EFE2B680133314618462B60FDF717
:10562800E1FDAA8A217840F2520040F2D073C2F21A
:105638000003C2F200001E68008806EBD01640F294
:10564800C000C2F2000040F2C403013AC2F20003F3
:10565800AA8241F002012325066001224020217020
:105668001D708BF8000088F8002018E440F2D10281
:1056780040F2CE03C2F20002C2F2000311781A7897
:10568800D2069AF800204FF4505340F2520003FB20
:1056980001F3C2EBC202C2F2000040F2D07109EB82
:1056A800C209C2F2000140F23025C2F200050288A8
:1056B8000F68D9F82C602B6140F2C00440F2540006
:1056C80058BF03F5D05302EB4202C2F20004C2F203
:1056D800000040F2C40106EB532658BF2B61C2F20A
:1056E8000001D31902222360EF602E6012270026E2
:1056F800FF24027001234FF4D0520F702E72EC7108
:105708006A6188F80030FFF7CABB227840F2D303F9
:10571800C2F20003002142F004022270197088F8D6
:105728000010FFF7BCBBEB8A286943F274211F18ED
:1057380001339BB2C7F30807C2F2010140F2D30656
:105748001844C2F20006013ACF5DAA82C0F30800ED
:10575800EB82377028B92B68013318462B60FDF7A8
:1057680041FD40F2520240F2D073C2F20002C2F28E
:10577800000315881868227840F2C001C2F20001BF
:1057880000EBD51040F2C403C2F2000342F002025B
:10579800212508605CE510221A709FE52B7A03EB3F
:1057A800830305EB430595F82130DA077FF509AF48
:1057B800237843F00803237003E7002289F8302098
:1057C800CEE69AF80020296903EB8303C2EBC202F4
:1057D80005EB430309EBC2091A8BD9F82C30EA828E
:1057E80043F274260A4403EB5223C2F20106184618
:1057F80031462B60FDF7F6FCEB8A2A6998180133CD
:105808009BB2C0F3080040F2D3011A44C2F200016F
:10581800305CEB82C2F3080305220870AA8233B910
:105828002B680133314618462B60FDF7DBFC40F24C
:10583800520240F2D073C2F20002C2F2000317888B
:105848001E68217840F2C005C2F2000540F25500FA
:10585800C2F2000006EBD71640F2C40240F254032D
:105868002E60C2F200024025C2F20003057041F02A
:105878000201212602250120217016701D7088F86A
:105888000000FFF70CBB013B1370FFF708BB40F2A9
:105898005203C2F2000340F2D072C2F200021B8827
:1058A8001668217840F2C00503EB4303C2F20005F5
:1058B80040F2550040F2C40206EBE316C2F20000C3
:1058C800C2F2000241F002037F272E600121112558
:1058D80007702370157088F80010FFF7E0BA42F0DF
:1058E80008022270FFF7DBBAFB24EA821C54002965
:1058F8007FF4AAAA43F27421C2F201012868FDF7D5
:10590800E7FC2B6843F2742101331846C2F2010107
:105918002B60FDF767FCFFF797BA43F27421C2F2D8
:10592800010128680093FDF7D3FC2A6843F274212B
:1059380001321046C2F201012A60FDF753FC2969C1
:10594800EA8A009B5018FFF700BA43F27421C2F2AA
:10595800010128680093FDF7BBFC2A6843F2742113
:1059680001321046C2F201012A60FDF73BFC2969A9
:10597800EA8A009B5018FFF7DBB943F27421C2F2A0
:10598800010128680093FDF7A3FC2A6843F27421FB
:1059980001321046C2F201012A60FDF723FC296991
:1059A800EA8A009B5018FFF7B6B943F27421C2F295
:1059B800010128680093FDF78BFC2A6843F27421E3
:1059C80001321046C2F201012A60FDF70BFC296979
:1059D800EA8A009B5018FFF791B943F27421C2F28A
:1059E800010128680093FDF773FC2A6843F27421CB
:1059F80001321046C2F201012A60FDF7F3FB296962
:105A0800EA8A009B5418C4F30804FFF7ABB9194697
:105A18002868FDF75DFC2A68009B0132194610468C
:105A28002A60FDF7DFFB2969EA8A009B5418FFF713
:105A38000AB943F27421C2F2010128680093FDF704
:105A480047FC2A6843F2742101321046C2F2010170
:105A58002A60FDF7C7FB2969EA8A009B5018FFF7FF
:105A68000CB943F27421C2F2010128680093FDF7D2
:105A78002FFC2A6843F2742101321046C2F2010158
:105A88002A60FDF7AFFB2969EA8A009B5018FFF7E7
:105A9800E7B843F27421C2F2010128680093FDF7C8
:105AA80017FC2A6843F2742101321046C2F2010140
:105AB8002A60FDF797FB2969EA8A009B5018FFF7CF
:105AC80010B943F27421C2F2010128680093FDF76E
